:020000040000FA
:100000000C9461000C94A2020C947B020C947E0070
:100010000C947E000C947E000C947E000C947E0068
:100020000C947E000C947E000C947E000C947E0058
:100030000C947E000C947E000C947E000C947E0048
:100040000C9431020C947E000C947E000C947E0083
:100050000C947E000C947E000C947E000C947E0028
:100060000C947E000C947E00000000002400270009
:100070002A0000000000250028002B0000000000DE
:1000800023002600290004040404040404040202DA
:100090000202020203030303030301020408102007
:1000A0004080010204081020010204081020000012
:1000B0000008000201000003040700000000000027
:1000C000000011241FBECFEFD8E0DEBFCDBF11E08E
:1000D000A0E0B1E0E4EEFBE002C005900D92AE308E
:1000E000B107D9F721E0AEE0B1E001C01D92A13225
:1000F000B207E1F70E94C9020C94F0050C940000CD
:10010000833081F028F4813099F08230A9F008958D
:100110008730A9F08830C9F08430B1F48091800034
:100120008F7D03C0809180008F7780938000089539
:1001300084B58F7784BD089584B58F7DFBCF809182
:10014000B0008F778093B00008958091B0008F7DCC
:10015000F9CFCF93DF93282F30E0F901E255FF4F1D
:100160008491F901E656FF4FD491F901EA57FF4F08
:10017000C491CC23A1F081110E948000EC2FF0E00B
:10018000EE0FFF1FE458FF4FA591B491EC91ED23C2
:1001900081E090E009F480E0DF91CF91089580E064
:1001A00090E0FACF1F93CF93DF93282F30E0F9012F
:1001B000E255FF4F8491F901E656FF4FD491F901C2
:1001C000EA57FF4FC491CC23A9F0162F81110E944A
:1001D0008000EC2FF0E0EE0FFF1FEE58FF4FA591CF
:1001E000B4918FB7F894EC91111108C0D095DE232B
:1001F000DC938FBFDF91CF911F910895DE2BF8CF55
:10020000CF93DF93C6E0D1E061E088810E94D20005
:1002100061E08A810E94D20061E08C810E94D2005C
:1002200061E08E81DF91CF910C94D200CF93DF9368
:1002300090E0FC01E656FF4F24918A579F4FFC0146
:1002400084918823D1F090E0880F991FFC01E85930
:10025000FF4FA591B491FC01EE58FF4FC591D49189
:1002600061110EC09FB7F8948C91E22FE0958E2318
:100270008C932881E223E8839FBFDF91CF9108957B
:100280008FB7F894EC91E22BEC938FBFF6CF1F93CE
:10029000CF93DF93182FEB0161E00E9416012097A6
:1002A00039F460E0812FDF91CF911F910C94D2003F
:1002B000CF3FD10511F461E0F5CFE12FF0E0E25539
:1002C000FF4FE491E33031F140F4E130B1F0E2303E
:1002D000E1F0C038D1057CF7E4CFE73029F1E83010
:1002E00059F1E430B1F78091800080628093800002
:1002F000D0938B00C0938A0004C084B5806884BD0D
:10030000C7BDDF91CF911F91089584B5806284BDF0
:10031000C8BDF7CF80918000806880938000D09323
:100320008900C0938800EDCF8091B00080688093F1
:10033000B000C093B300E5CF8091B000806280939D
:10034000B000C093B400DDCFCF93DF93C6E0D1E01F
:1003500070E060E088810E94470170E060E08A817F
:100360000E94470170E060E08C810E94470170E0CC
:1003700060E08E81DF91CF910C9447018E3008F0C0
:100380008E508770806480937C0080917A008064B6
:1003900080937A0080917A0086FDFCCF809178006E
:1003A0009091790008953FB7F89480911D01909144
:1003B0001E01A0911F01B091200126B5A89B05C088
:1003C0002F3F19F00196A11DB11D3FBFBA2FA92FD4
:1003D000982F8827BC01CD01620F711D811D911DD1
:1003E00042E0660F771F881F991F4A95D1F708953D
:1003F0008F929F92AF92BF92CF92DF92EF92FF9235
:100400004B015C010E94D3016B017C010E94D3016E
:100410006C197D098E099F09683E7340810591051D
:10042000A8F321E0821A9108A108B10888EEC80E4D
:1004300083E0D81EE11CF11C81149104A104B104D5
:1004400029F7FF90EF90DF90CF90BF90AF909F90F3
:100450008F90089508950E94000190E080E00E942E
:10046000F0051F920F920FB60F9211242F933F9316
:100470008F939F93AF93BF938091190190911A012D
:10048000A0911B01B0911C013091180123E0230FB2
:100490002D3758F50196A11DB11D209318018093A9
:1004A000190190931A01A0931B01B0931C01809134
:1004B0001D0190911E01A0911F01B0912001019694
:1004C000A11DB11D80931D0190931E01A0931F01DA
:1004D000B0932001BF91AF919F918F913F912F9148
:1004E0000F900FBE0F901F90189526E8230F0296CD
:1004F000A11DB11DD2CF1F920F920FB60F921124E2
:100500002F933F934F935F936F937F938F939F931B
:10051000AF93BF93EF93FF93E0910201F09103013A
:100520000995FF91EF91BF91AF919F918F917F912D
:100530006F915F914F913F912F910F900FBE0F9050
:100540001F9018951F920F920FB60F9211242F93A0
:100550003F934F935F936F937F938F939F93AF934B
:10056000BF93EF93FF93E0910001F0910101099592
:10057000FF91EF91BF91AF919F918F917F916F917B
:100580005F914F913F912F910F900FBE0F901F9051
:100590001895789484B5826084BD84B5816084BDEB
:1005A00085B5826085BD85B5816085BD80916E0011
:1005B000816080936E001092810080918100826042
:1005C000809381008091810081608093810080917F
:1005D00080008160809380008091B100846080936E
:1005E000B1008091B00081608093B00080917A006A
:1005F000846080937A0080917A00826080937A0090
:1006000080917A00816080937A0080917A0080687E
:1006100080937A001092C10061E0809106010E94EF
:10062000160161E0809107010E94160161E080914E
:1006300008010E94160161E0809109010E941601E3
:1006400061E080910A010E94160161E080910B0136
:100650000E94160161E080910C010E94160161E088
:1006600080910D010E94160170E060E0809106010A
:100670000E94470161E0809107010E94D20070E072
:1006800060E0809108010E94470161E080910901CA
:100690000E94D20070E060E080910A010E94470150
:1006A00061E080910B010E94D20070E060E08091D7
:1006B0000C010E94470161E080910D010E94D2006F
:1006C00082E00E94A900892BD9F360E082E00E94B9
:1006D00016018BE292E090930101809300018091DA
:1006E00069008C7F80936900E89A0E94A401C09100
:1006F0000A0162E870E0809106010E94470162E809
:1007000070E08C2F0E944701C0E0D0E082E0D82E3C
:10071000CC24C39401E010E092E0E92EF12C8DE0AE
:100720000E94A90080930E018EE00E94BE01BC01D0
:10073000990F880B990B0E94CE042AE038E240EA18
:100740005BE30E940E054B015C012DEC3CEC4CE0A0
:1007500050E40E94090518160CF4BBC02AE939E9D7
:1007600049E15FE3C501B4010E94090518160CF4C4
:10077000ADC010920F018FE00E94BE01BC01990F25
:10078000880B990B0E94CE042AE038E240EA5BE332
:100790000E940E054B015C012DEC3CEC4CE050E45A
:1007A0000E94090518160CF49AC02AE939E949E1B2
:1007B0005FE3C501B4010E94090518160CF48CC052
:1007C0001092100187E00E94A90021E0892B09F016
:1007D00020E02093110188E00E94A90021E0892BEC
:1007E00009F020E02093120181E10E94BE0121E086
:1007F0008C32914008F020E02093130182E10E94A6
:10080000BE0121E08C32914008F020E020931401D9
:1008100080E10E94BE0121E08C32914008F020E08E
:100820002093150180911401880F4091130194E0E9
:10083000499FA0011124842B822B80931701809162
:100840000F01880F20910E0194E0299F900111243F
:10085000822B90911101892B2091100198E0299F02
:1008600090011124822B2091120190E1299F900187
:100870001124822B809316018E7059F08FB7F89453
:100880004091190150911A0160911B0170911C0156
:100890008FBF8091040190910501019741F08091F3
:1008A0001701857021F010920501109204018091CA
:1008B0000401909105010097A9F0019709F448C03F
:1008C000209709F42CCF0E94000029CFC0920F017D
:1008D00052CFD0920F014FCFC092100173CFD09260
:1008E000100170CF10930501009304010E94A40130
:1008F000B0900C0168EC70E0809108010E94470103
:1009000068EC70E08B2D0E94470168EC70E080E09D
:1009100090E00E94F8018091170180FF10C00E94B2
:10092000A401B0900A016CE370E0809108010E947C
:1009300047016CE370E08B2D0E944701C1CF0E94FC
:10094000A401B0900C016CE370E080910601EFCF40
:100950008091160182FD04C08091170181FFB0CF04
:100960000E94000169E170E080E090E00E94F801DF
:100970000E94A401B0900A0162E870E08091060133
:100980000E94470162E870E08B2D0E944701F092BF
:100990000501E092040194CFE89409C097FB3EF46E
:1009A00090958095709561957F4F8F4F9F4F9923BC
:1009B000A9F0F92F96E9BB279395F695879577953A
:1009C0006795B795F111F8CFFAF4BB0F11F460FFFA
:1009D0001BC06F5F7F4F8F4F9F4F16C0882311F052
:1009E00096E911C0772321F09EE8872F762F05C066
:1009F000662371F096E8862F70E060E02AF09A9501
:100A0000660F771F881FDAF7880F9695879597F9F5
:100A100008950E947B0508F48FEF08950E94210538
:100A20000C94B6050E94A80538F00E94AF0520F08E
:100A3000952311F00C949F050C94A50511240C949A
:100A4000EA050E94C70570F3959FC1F3950F50E02A
:100A5000551F629FF001729FBB27F00DB11D639F70
:100A6000AA27F00DB11DAA1F649F6627B00DA11D16
:100A7000661F829F2227B00DA11D621F739FB00DBC
:100A8000A11D621F839FA00D611D221F749F33272C
:100A9000A00D611D231F849F600D211D822F762FC5
:100AA0006A2F11249F5750409AF0F1F088234AF0A2
:100AB000EE0FFF1FBB1F661F771F881F915050400E
:100AC000A9F79E3F510580F00C949F050C94EA0510
:100AD0005F3FE4F3983ED4F3869577956795B79595
:100AE000F795E7959F5FC1F7FE2B880F911D9695AF
:100AF000879597F90895990F0008550FAA0BE0E81C
:100B0000FEEF16161706E807F907C0F012161306CF
:100B1000E407F50798F0621B730B840B950B39F40F
:100B20000A2661F0232B242B252B21F408950A2675
:100B300009F4A140A6958FEF811D811D089597F9B5
:100B40009F6780E870E060E008959FEF80EC089573
:100B500000240A941616170618060906089500249C
:100B60000A9412161306140605060895092E039416
:100B7000000C11F4882352F0BB0F40F4BF2B11F48A
:100B800060FF04C06F5F7F4F8F4F9F4F089557FDE9
:100B90009058440F551F59F05F3F71F04795880FEB
:100BA00097FB991F61F09F3F79F087950895121682
:100BB00013061406551FF2CF4695F1DF08C016162E
:100BC00017061806991FF1CF8695710561050894DF
:100BD0000895E894BB2766277727CB0197F90895F6
:100BE000F894FFCF2A022A02020006050304090A2C
:020BF0000B0CEC
:107E0000112484B714BE81FFF0D085E080938100F7
:107E100082E08093C00088E18093C10086E0809377
:107E2000C20080E18093C4008EE0C9D0259A86E02C
:107E300020E33CEF91E0309385002093840096BBD3
:107E4000B09BFECF1D9AA8958150A9F7CC24DD24C4
:107E500088248394B5E0AB2EA1E19A2EF3E0BF2EE7
:107E6000A2D0813461F49FD0082FAFD0023811F036
:107E7000013811F484E001C083E08DD089C08234E0
:107E800011F484E103C0853419F485E0A6D080C0E4
:107E9000853579F488D0E82EFF2485D0082F10E0AE
:107EA000102F00270E291F29000F111F8ED06801E7
:107EB0006FC0863521F484E090D080E0DECF843638
:107EC00009F040C070D06FD0082F6DD080E0C81688
:107ED00080E7D80618F4F601B7BEE895C0E0D1E017
:107EE00062D089930C17E1F7F0E0CF16F0E7DF06D8
:107EF00018F0F601B7BEE89568D007B600FCFDCFD4
:107F0000A601A0E0B1E02C9130E011968C91119780
:107F100090E0982F8827822B932B1296FA010C0160
:107F200087BEE89511244E5F5F4FF1E0A038BF0790
:107F300051F7F601A7BEE89507B600FCFDCF97BE46
:107F4000E89526C08437B1F42ED02DD0F82E2BD052
:107F50003CD0F601EF2C8F010F5F1F4F84911BD097
:107F6000EA94F801C1F70894C11CD11CFA94CF0C13
:107F7000D11C0EC0853739F428D08EE10CD085E9AC
:107F80000AD08FE07ACF813511F488E018D01DD067
:107F900080E101D065CF982F8091C00085FFFCCF94
:107FA0009093C60008958091C00087FFFCCF809118
:107FB000C00084FD01C0A8958091C6000895E0E648
:107FC000F0E098E1908380830895EDDF803219F02E
:107FD00088E0F5DFFFCF84E1DECF1F93182FE3DFCA
:107FE0001150E9F7F2DF1F91089580E0E8DFEE27F6
:047FF000FF270994CA
:027FFE00040479
:00000001FF
