:020000040000FA
:100000000C9463000C949C030C9475030C948B006B
:100010000C948B000C948B000C948B000C948B0034
:100020000C948B000C948B000C948B000C948B0024
:100030000C948B000C948B000C948B000C948B0014
:100040000C942B030C948B000C94E9030C94C303C5
:100050000C948B000C948B000C948B000C948B00F4
:100060000C948B000C948B000000000024002700EF
:100070002A0000000000250028002B0000000000DE
:1000800023002600290004040404040404040202DA
:100090000202020203030303030301020408102007
:1000A0004080010204081020010204081020000012
:1000B0000008000201000003040700000000000027
:1000C0000000A505D20511241FBECFEFD8E0DEBF8A
:1000D000CDBF11E0A0E0B1E0EEE1F1E102C005909A
:1000E0000D92A634B107D9F721E0A6E4B1E001C032
:1000F0001D92A93FB207E1F710E0C2E6D0E004C0CC
:100100002197FE010E945707C136D107C9F70E9407
:100110001B040C9482080C940000833081F028F4B6
:10012000813099F08230A9F008958730A9F08830A5
:10013000C9F08430B1F4809180008F7D03C080913C
:1001400080008F7780938000089584B58F7784BD79
:10015000089584B58F7DFBCF8091B0008F77809319
:10016000B00008958091B0008F7DF9CFCF93DF93D9
:10017000282F30E0F901E255FF4F8491F901E6564E
:10018000FF4FD491F901EA57FF4FC491CC23A1F05E
:1001900081110E948D00EC2FF0E0EE0FFF1FE4585C
:1001A000FF4FA591B491EC91ED2381E090E009F42B
:1001B00080E0DF91CF91089580E090E0FACF1F9327
:1001C000CF93DF93282F30E0F901E255FF4F849160
:1001D000F901E656FF4FD491F901EA57FF4FC49158
:1001E000CC23A9F0162F81110E948D00EC2FF0E096
:1001F000EE0FFF1FEE58FF4FA591B4918FB7F89403
:10020000EC91111108C0D095DE23DC938FBFDF91F4
:10021000CF911F910895DE2BF8CFCF93DF93C0E2EB
:10022000D1E061E088810E94DF0061E08A810E9464
:10023000DF0061E08C810E94DF0061E08E81DF9150
:10024000CF910C94DF00CF93DF9390E0FC01E65652
:10025000FF4F24918A579F4FFC0184918823D1F04E
:1002600090E0880F991FFC01E859FF4FA591B491C8
:10027000FC01EE58FF4FC591D49161110EC09FB79C
:10028000F8948C91E22FE0958E238C932881E223C1
:10029000E8839FBFDF91CF9108958FB7F894EC91D9
:1002A000E22BEC938FBFF6CF1F93CF93DF93182FE2
:1002B000EB0161E00E942301209739F460E0812F77
:1002C000DF91CF911F910C94DF00CF3FD10511F446
:1002D00061E0F5CFE12FF0E0E255FF4FE491E3302C
:1002E00031F140F4E130B1F0E230E1F0C038D10555
:1002F0007CF7E4CFE73029F1E83059F1E430B1F789
:1003000080918000806280938000D0938B00C093A6
:100310008A0004C084B5806884BDC7BDDF91CF91D9
:100320001F91089584B5806284BDC8BDF7CF8091C8
:100330008000806880938000D0938900C0938800FB
:10034000EDCF8091B00080688093B000C093B3007F
:10035000E5CF8091B00080628093B000C093B4007C
:10036000DDCF8E3008F08E508770806480937C00E3
:1003700080917A00806480937A0080917A0086FD73
:10038000FCCF809178009091790008950895AF9204
:10039000BF92CF92DF92EF92FF920F931F93CF9372
:1003A000DF936C017B018B01040F151FEB015E01D4
:1003B000AE18BF08C017D10759F06991D601ED9169
:1003C000FC910190F081E02DC6010995892B79F708
:1003D000C501DF91CF911F910F91FF90EF90DF90BA
:1003E000CF90BF90AF900895FC01538D448D252F81
:1003F00030E0842F90E0821B930B541710F0CF96BF
:10040000089501970895FC01918D828D981761F0F0
:10041000A28DAE0FBF2FB11D5D968C91928D9F5F07
:100420009F73928F90E008958FEF9FEF0895FC01E6
:10043000918D828D981731F0828DE80FF11D858D99
:1004400090E008958FEF9FEF0895FC01918D228D2C
:10045000892F90E0805C9F4F821B91098F739927B1
:10046000089588E591E00E94250221E0892B09F496
:1004700020E0822F089580E090E0892B29F00E94EF
:10048000310281110C9400000895FC01A48DA80F85
:10049000B92FB11DA35ABF4F2C91848D90E00196C6
:1004A0008F739927848FA689B7892C93A089B189E6
:1004B0008C91837080648C93938D848D981306C087
:1004C0000288F389E02D80818F7D80830895EF92EB
:1004D000FF920F931F93CF93DF93EC0181E0888FFE
:1004E0009B8D8C8D98131AC0E889F989808185FFCE
:1004F00015C09FB7F894EE89FF896083E889F98970
:1005000080818370806480839FBF81E090E0DF9171
:10051000CF911F910F91FF90EF900895F62E0B8DC4
:1005200010E00F5F1F4F0F731127E02E8C8D8E117F
:100530000CC00FB607FCFACFE889F989808185FFE6
:10054000F5CFCE010E944502F1CFEB8DEC0FFD2FD0
:10055000F11DE35AFF4FF0829FB7F8940B8FEA89A1
:10056000FB8980818062CFCFCF93DF93EC01888DB0
:100570008823B9F0AA89BB89E889F9898C9185FD1E
:1005800003C0808186FD0DC00FB607FCF7CF8C91AC
:1005900085FFF2CF808185FFEDCFCE010E9445021D
:1005A000E9CFDF91CF910895FC0101900020E9F798
:1005B0003197AF01481B590BBC0188E591E00C94C1
:1005C000C7018F929F92AF92BF920F931F93CF93C9
:1005D000DF93CDB7DEB7A1970FB6F894DEBF0FBE9D
:1005E000CDBF19A2423008F44AE08E010F5D1F4FC3
:1005F000842E912CB12CA12CA50194010E943507C9
:10060000E62FB901CA01EA30F4F4E05DD801EE93B7
:100610008D01232B242B252B79F790E080E0109778
:1006200019F0CD010E94D402A1960FB6F894DEBF56
:100630000FBECDBFDF91CF911F910F91BF90AF90B3
:100640009F908F900895E95CE1CF0E940D0190E0AA
:1006500080E00E9482081F920F920FB60F92112421
:100660002F933F938F939F93AF93BF9380915401A8
:1006700090915501A0915601B091570130915301CD
:1006800023E0230F2D3758F50196A11DB11D2093AE
:1006900053018093540190935501A0935601B09358
:1006A000570180914F0190915001A0915101B0915B
:1006B00052010196A11DB11D80934F0190935001ED
:1006C000A0935101B0935201BF91AF919F918F912F
:1006D0003F912F910F900FBE0F901F90189526E815
:1006E000230F0296A11DB11DD2CF1F920F920FB6FC
:1006F0000F9211242F933F934F935F936F937F93A8
:100700008F939F93AF93BF93EF93FF93E0911C015F
:10071000F0911D010995FF91EF91BF91AF919F91CC
:100720008F917F916F915F914F913F912F910F909A
:100730000FBE0F901F9018951F920F920FB60F9239
:1007400011242F933F934F935F936F937F938F93D6
:100750009F93AF93BF93EF93FF93E0911A01F091B2
:100760001B010995FF91EF91BF91AF919F918F91DF
:100770007F916F915F914F913F912F910F900FBE9D
:100780000F901F9018951F920F920FB60F92112481
:100790002F933F934F935F936F937F938F939F9389
:1007A000AF93BF93EF93FF9388E591E00E944502DA
:1007B000FF91EF91BF91AF919F918F917F916F9139
:1007C0005F914F913F912F910F900FBE0F901F900F
:1007D00018951F920F920FB60F9211242F938F939B
:1007E0009F93EF93FF93E0916801F09169018081FD
:1007F000E0916E01F0916F0182FD1BC090818091AC
:1008000071018F5F8F7320917201821741F0E09127
:100810007101F0E0E85AFE4F958F80937101FF91CE
:10082000EF919F918F912F910F900FBE0F901F907E
:1008300018958081F4CF789484B5826084BD84B5A6
:10084000816084BD85B5826085BD85B5816085BDCB
:1008500080916E00816080936E0010928100809183
:10086000810082608093810080918100816080930B
:100870008100809180008160809380008091B10030
:1008800084608093B1008091B00081608093B0005B
:1008900080917A00846080937A0080917A008260EF
:1008A00080937A0080917A00816080937A008091B1
:1008B0007A00806880937A001092C100E09168010C
:1008C000F091690182E08083E0916401F09165011B
:1008D0001082E0916601F09167018FEC80831092A5
:1008E0007001E0916C01F0916D0186E08083E091F0
:1008F0006A01F0916B01808180618083E0916A01DF
:10090000F0916B01808188608083E0916A01F091B1
:100910006B01808180688083E0916A01F0916B01B6
:1009200080818F7D808382E00E94B600892BD9F37D
:1009300060E082E00E94230185E293E090931B0136
:1009400080931A01809169008C7F80936900E89AF6
:10095000C0E0D0E082E0F82EEE24E39402E010E064
:100960008DE00E94B600809346018EE00E94B101A6
:10097000BC01990F880B990B0E9413062AE038E2FC
:1009800040EA5BE30E9453064B015C012DEC3CEC1A
:100990004CE050E40E944E0618160CF49EC02AE962
:1009A00039E949E15FE3C501B4010E944E0618161A
:1009B0000CF490C0109247018FE00E94B101BC017D
:1009C000990F880B990B0E9413062AE038E240EA3F
:1009D0005BE30E9453064B015C012DEC3CEC4CE0C8
:1009E00050E40E944E0618160CF47DC02AE939E93D
:1009F00049E15FE3C501B4010E944E0618160CF4EC
:100A00006FC01092480187E00E94B60080934901B0
:100A100088E00E94B60080934A0180E10E94B10103
:100A200021E08C32914008F020E020934B0181E1DD
:100A30000E94B10121E08C32914008F020E0209327
:100A40004C0182E10E94B10121E08C32914008F01A
:100A500020E020934D0160914B0170E090E080E038
:100A60004AE00E94E10280E491E00E94D402609199
:100A70004C0170E090E080E04AE00E94E10280E4F6
:100A800091E00E94D40260914D0170E090E080E01E
:100A90004AE00E94E10282E491E00E94D40242E036
:100AA00060E070E0CB010E94E10282E491E00E94EC
:100AB000D40280911E0190911F0181309105B1F007
:100AC00010924E01892B29F50E940D0190E080E0E3
:100AD0000E948208E09247016FCFF09247016CCFED
:100AE000E092480190CFF09248018DCF80914E0165
:100AF00080FF04C010931F0100931E01209709F48A
:100B00002FCF0E943102882309F42ACF0E940000CF
:100B100027CFA0902001B09024019090260170E092
:100B200060E0809122010E94540170E060E0892D14
:100B30000E94540168E770E08A2D0E94540168E722
:100B400070E08B2D0E945401D9CFE8E5F1E01382CB
:100B5000128288EE93E0A0E0B0E084839583A683C0
:100B6000B78382E391E09183808385EC90E0958761
:100B7000848784EC90E09787868780EC90E0918B67
:100B8000808B81EC90E0938B828B82EC90E0958B54
:100B9000848B86EC90E0978B868B118E128E138E51
:100BA000148E0895809113018F3F31F060E00E9410
:100BB00023018FEF80931301809114018F3F31F057
:100BC00060E00E9423018FEF8093140110921501C1
:100BD00080910B0190910C01009711F00E94F90790
:100BE0008091030190910401009711F00E94F90790
:100BF0008091080190910901009711F00E94F90776
:100C00008091010190910201009711F00E94F90773
:100C10008091060190910701009711F00C94F9075B
:100C20000895E89409C097FB3EF4909580957095DF
:100C300061957F4F8F4F9F4F9923A9F0F92F96E928
:100C4000BB279395F695879577956795B795F1119D
:100C5000F8CFFAF4BB0F11F460FF1BC06F5F7F4F3A
:100C60008F4F9F4F16C0882311F096E911C077234C
:100C700021F09EE8872F762F05C0662371F096E855
:100C8000862F70E060E02AF09A95660F771F881F24
:100C9000DAF7880F9695879597F908950E94C00610
:100CA00008F48FEF08950E9466060C94FB060E94DC
:100CB000ED0638F00E94F40620F0952311F00C9414
:100CC000E4060C94EA0611240C942F070E940C07EA
:100CD00070F3959FC1F3950F50E0551F629FF0018F
:100CE000729FBB27F00DB11D639FAA27F00DB11DA8
:100CF000AA1F649F6627B00DA11D661F829F222731
:100D0000B00DA11D621F739FB00DA11D621F839FB7
:100D1000A00D611D221F749F3327A00D611D231F8D
:100D2000849F600D211D822F762F6A2F11249F57DB
:100D300050409AF0F1F088234AF0EE0FFF1FBB1FDE
:100D4000661F771F881F91505040A9F79E3F51059D
:100D500080F00C94E4060C942F075F3FE4F3983E78
:100D6000D4F3869577956795B795F795E7959F5F47
:100D7000C1F7FE2B880F911D9695879597F90895D9
:100D8000990F0008550FAA0BE0E8FEEF161617069C
:100D9000E807F907C0F012161306E407F50798F004
:100DA000621B730B840B950B39F40A2661F0232B1D
:100DB000242B252B21F408950A2609F4A140A69599
:100DC0008FEF811D811D089597F99F6780E870E07E
:100DD00060E008959FEF80EC089500240A941616B1
:100DE000170618060906089500240A941216130619
:100DF000140605060895092E0394000C11F48823A7
:100E000052F0BB0F40F4BF2B11F460FF04C06F5FC2
:100E10007F4F8F4F9F4F089557FD9058440F551F98
:100E200059F05F3F71F04795880F97FB991F61F06C
:100E30009F3F79F087950895121613061406551FE3
:100E4000F2CF4695F1DF08C0161617061806991F4F
:100E5000F1CF86957105610508940895E894BB2744
:100E600066277727CB0197F90895A1E21A2EAA1BCE
:100E7000BB1BFD010DC0AA1FBB1FEE1FFF1FA2174A
:100E8000B307E407F50720F0A21BB30BE40BF50B47
:100E9000661F771F881F991F1A9469F760957095D0
:100EA000809590959B01AC01BD01CF010895EE0F97
:100EB000FF1F0590F491E02D09940F931F93CF939A
:100EC000DF938230910510F482E090E0E091F70129
:100ED000F091F80130E020E0B0E0A0E0309799F424
:100EE0002115310509F44AC0281B390B243031057E
:100EF000D8F58A819B816115710589F1FB01938386
:100F00008283FE0111C04081518102811381481703
:100F10005907E0F04817590799F4109761F01296B5
:100F20000C93129713961C933296CF01DF91CF91B9
:100F30001F910F9108950093F7011093F801F4CFDA
:100F40002115310551F04217530738F0A901DB0193
:100F50009A01BD01DF01F801C1CFEF01F9CF9093F4
:100F6000F8018093F701CDCFFE01E20FF31F8193CB
:100F700091932250310939832883D7CF2091F501ED
:100F80003091F601232B41F420912A0130912B015D
:100F90003093F6012093F501209128013091290129
:100FA0002115310541F42DB73EB740912C015091E8
:100FB0002D01241B350BE091F501F091F601E217AC
:100FC000F307A0F42E1B3F0B2817390778F0AC016C
:100FD0004E5F5F4F2417350748F04E0F5F1F509349
:100FE000F6014093F501819391939FCFF0E0E0E00B
:100FF0009CCFCF93DF930097E9F0FC0132971382E7
:101000001282A091F701B091F801ED0130E020E0EB
:101010001097A1F420813181820F931F2091F50157
:101020003091F6012817390709F061C0F093F601F5
:10103000E093F501DF91CF910895EA01CE17DF0724
:10104000E8F54A815B819E0141155105B1F7E9013F
:10105000FB83EA8349915991C40FD51FEC17FD0713
:1010600061F4808191810296840F951FE901998333
:101070008883828193819B838A83F0E0E0E01296EB
:101080008D919C9113970097B9F52D913C911197F3
:10109000CD010296820F931F2091F5013091F60148
:1010A0002817390739F6309751F51092F801109248
:1010B000F701B093F601A093F501BCCFD383C283AF
:1010C00040815181840F951FC817D90761F44E5F85
:1010D0005F4F88819981480F591F518340838A81CE
:1010E0009B81938382832115310509F0B0CFF09362
:1010F000F801E093F7019ECFFD01DC01C0CF138220
:101100001282D7CF10E0C2E6D0E004C0FE010E94F8
:1011100057072196C336D107C9F7F894FFCF0000CF
:10112000000000000000000000000000C409C40925
:1011300004FFFF0001000000C601C6010200060511
:101140000304090A0B0C0000F901800000000000F4
:101150006702C701F401B402250203021702090065
:041160000D0A000074
:107E0000112484B714BE81FFF0D085E080938100F7
:107E100082E08093C00088E18093C10086E0809377
:107E2000C20080E18093C4008EE0C9D0259A86E02C
:107E300020E33CEF91E0309385002093840096BBD3
:107E4000B09BFECF1D9AA8958150A9F7CC24DD24C4
:107E500088248394B5E0AB2EA1E19A2EF3E0BF2EE7
:107E6000A2D0813461F49FD0082FAFD0023811F036
:107E7000013811F484E001C083E08DD089C08234E0
:107E800011F484E103C0853419F485E0A6D080C0E4
:107E9000853579F488D0E82EFF2485D0082F10E0AE
:107EA000102F00270E291F29000F111F8ED06801E7
:107EB0006FC0863521F484E090D080E0DECF843638
:107EC00009F040C070D06FD0082F6DD080E0C81688
:107ED00080E7D80618F4F601B7BEE895C0E0D1E017
:107EE00062D089930C17E1F7F0E0CF16F0E7DF06D8
:107EF00018F0F601B7BEE89568D007B600FCFDCFD4
:107F0000A601A0E0B1E02C9130E011968C91119780
:107F100090E0982F8827822B932B1296FA010C0160
:107F200087BEE89511244E5F5F4FF1E0A038BF0790
:107F300051F7F601A7BEE89507B600FCFDCF97BE46
:107F4000E89526C08437B1F42ED02DD0F82E2BD052
:107F50003CD0F601EF2C8F010F5F1F4F84911BD097
:107F6000EA94F801C1F70894C11CD11CFA94CF0C13
:107F7000D11C0EC0853739F428D08EE10CD085E9AC
:107F80000AD08FE07ACF813511F488E018D01DD067
:107F900080E101D065CF982F8091C00085FFFCCF94
:107FA0009093C60008958091C00087FFFCCF809118
:107FB000C00084FD01C0A8958091C6000895E0E648
:107FC000F0E098E1908380830895EDDF803219F02E
:107FD00088E0F5DFFFCF84E1DECF1F93182FE3DFCA
:107FE0001150E9F7F2DF1F91089580E0E8DFEE27F6
:047FF000FF270994CA
:027FFE00040479
:00000001FF
